:1000000072C000009EC000009CC000009AC00000AA
:1000100098C0000096C0000094C0000092C000008C
:1000200090C000008EC000008CC000008AC000009C
:1000300088C0000086C0000084C0000082C00000AC
:1000400080C000007EC000007CC000007AC00000BC
:1000500078C0000076C0000074C00000CEC100006F
:1000600070C000009CC2000071C200006AC00000A5
:1000700068C0000066C0000064C0000062C00000EC
:1000800060C000005EC000005CC000005AC00000FC
:1000900027C20000FCC1000054C0000052C0000094
:1000A00050C000004EC000004CC000004AC000001C
:1000B00048C0000046C0000044C0000042C000002C
:1000C00040C000003EC000003CC000003AC000003C
:1000D00038C0000036C0000034C0000032C000004C
:1000E00030C00000050311241FBECFEFD1E2DEBFF8
:1000F000CDBF00E00CBF12E0A0E0B2E0E2ECF8E01F
:1001000000E00BBF02C007900D92A631B107D9F7EE
:1001100023E0A6E1B2E001C01D92A935B207E1F7E4
:1001200010E0C3E7D0E000E005C021970109802F6F
:10013000FE01BDD3C237D10780E00807B1F7B8D2BE
:10014000BEC35ECFFC01A089B18982E08C93A485F7
:10015000B5851C92A685B7858FEC8C93108EA489EB
:10016000B58986E08C93A289B3898C9180618C9348
:10017000A289B3898C9188608C93A289B3898C9170
:1001800080688C930288F389E02D80818F7D808345
:100190000895AF92BF92CF92DF92EF92FF920F93AA
:1001A0001F93CF93DF936C017B018B01040F151F0D
:1001B000EB015E01AE18BF08C017D10759F0699175
:1001C000D601ED91FC910190F081E02DC6011995C9
:1001D000892B79F7C501DF91CF911F910F91FF9086
:1001E000EF90DF90CF90BF90AF900895FC01538DBA
:1001F000448D252F30E0842F90E0821B930B541701
:1002000010F0CF96089501970895FC01918D828D8D
:10021000981761F0A28DAE0FBF2FB11D5D968C9126
:10022000928D9F5F9F73928F90E008958FEF9FEF65
:100230000895FC01918D828D981731F0828DE80F21
:10024000F11D858D90E008958FEF9FEF0895FC01DB
:10025000918D228D892F90E0805C9F4F821B9109A8
:100260008F73992708958FE192E0F1DF21E0892BC8
:1002700009F420E0822F08958CEB92E0E8DF21E082
:10028000892B09F420E0822F0895FC01A48DA80F8A
:10029000B92FB11DA35ABF4F2C91848D90E00196C8
:1002A0008F739927848FA689B7892C93A089B189E8
:1002B0008C91837080648C93938D848D981306C089
:1002C0000288F389E02D80818F7D80830895EF92ED
:1002D000FF920F931F93CF93DF93EC0181E0888F00
:1002E0009B8D8C8D98131AC0E889F989808185FFD0
:1002F00015C09FB7F894EE89FF896083E889F98972
:1003000080818370806480839FBF81E090E0DF9173
:10031000CF911F910F91FF90EF900895F62E0B8DC6
:1003200010E00F5F1F4F0F731127E02E8C8D8E1181
:100330000BC00FB607FCFACFE889F989808185FFE9
:10034000F5CFCE01A2DFF2CFEB8DEC0FFD2FF11D2B
:10035000E35AFF4FF0829FB7F8940B8FEA89FB892D
:1003600080818062D0CFCF93DF93EC01888D88238A
:10037000B1F0AA89BB89E889F9898C9185FD03C010
:10038000808186FD0CC00FB607FCF7CF8C9185FFEE
:10039000F2CF808185FFEDCFCE0177DFEACFDF910D
:1003A000CF91089580E090E0892B21F065DF8111E5
:1003B0000E94000080E090E0892B21F054DF811141
:1003C0000E94000080E090E0892B49F080E090E0FE
:1003D000892B29F00E94000081110E94000080E01A
:1003E00090E0892B49F080E090E0892B29F00E9471
:1003F000000081110C94000008951F920F920FB617
:100400000F9211242F933F938F939F93AF93BF939A
:1004100080911B0290911C02A0911D02B0911E02BE
:1004200030911A0223E0230F2D3758F50196A11DB4
:10043000B11D20931A0280931B0290931C02A0937B
:100440001D02B0931E028091160290911702A09196
:100450001802B09119020196A11DB11D80931602D8
:1004600090931702A0931802B0931902BF91AF9115
:100470009F918F913F912F910F900FBE0F901F90E2
:10048000189526E8230F0296A11DB11DD2CF1F9209
:100490000F920FB60F9211240BB60F922F933F932A
:1004A0004F935F936F937F938F939F93AF93BF937C
:1004B000EF93FF938FE192E0E8DEFF91EF91BF9120
:1004C000AF919F918F917F916F915F914F913F91EC
:1004D0002F910F900BBE0F900FBE0F901F9018958D
:1004E0001F920F920FB60F9211240BB60F922F93FB
:1004F0008F939F93EF93FF93E0912F02F09130023F
:100500008081E0913502F091360282FD1DC090811C
:10051000809138028F5F8F7320913902821741F0EA
:10052000E0913802F0E0E15EFD4F958F8093380254
:10053000FF91EF919F918F912F910F900BBE0F9094
:100540000FBE0F901F9018958081F2CF1F920F92CF
:100550000FB60F9211240BB60F922F933F934F9328
:100560005F936F937F938F939F93AF93BF93EF931B
:10057000FF938CEB92E089DEFF91EF91BF91AF91F9
:100580009F918F917F916F915F914F913F912F91AB
:100590000F900BBE0F900FBE0F901F9018951F92DB
:1005A0000F920FB60F9211240BB60F922F938F93C9
:1005B0009F93EF93FF93E091CC02F091CD02808165
:1005C000E091D202F091D30282FD1DC09081809112
:1005D000D5028F5F8F732091D602821741F0E09190
:1005E000D502F0E0E454FD4F958F8093D502FF9142
:1005F000EF919F918F912F910F900BBE0F900FBE97
:100600000F901F9018958081F2CFEFE1F2E01382F6
:10061000128248EE53E060E070E0448355836683C5
:10062000778384E092E0918380832DEC30E03587FE
:1006300024872CEC30E03787268728EC30E0318B9C
:10064000208B29EC30E0338B228B2AEC30E0358B89
:10065000248B2EEC30E0378B268B118E128E138E6E
:10066000148EECEBF2E0138212824483558366838E
:1006700077839183808385EC90E09587848784ECF1
:1006800090E09787868780EC90E0918B808B81EC5F
:1006900090E0938B828B82EC90E0958B848B86EC40
:1006A00090E0978B868B118E128E138E148E089588
:1006B000CF93DF93CDB7DEB7A1970FB6F894DEBF27
:1006C0000FBECDBF789484B5826084BD84B581604F
:1006D00084BD85B5826085BD85B5816085BD80910D
:1006E0006E00816080936E00109281008091810085
:1006F000826080938100809181008160809381007D
:10070000809180008160809380008091B10084603E
:100710008093B1008091B00081608093B00080919F
:10072000910082608093910080919100816080931C
:100730009100809190008160809390008091A10051
:1007400082608093A1008091A10081608093A100CC
:100750008091A00081608093A0008091210182603F
:1007600080932101809121018160809321018091FA
:10077000200181608093200180917A0084608093C1
:100780007A0080917A00826080937A0080917A006A
:10079000816080937A0080917A00806880937A00EB
:1007A0001092C1008CEB92E0CDDC8FE192E0CADCCC
:1007B0008AE0882E912CA12CB12C8FE192E047DDAC
:1007C000892B09F43BC08FE192E01FDD6C01990F8A
:1007D000EE08FF08F7FE34C06DE28CEB92E077DDA7
:1007E00022273327A9012C193D094E095F0919A2B7
:1007F000CE0181967C01CA01B901A501940135D0D1
:10080000605DF70162937F012115310541055105B6
:1008100091F7E114F10459F001900020E9F73197C4
:10082000AF014E195F09B7018CEB92E0B2DC42E0F8
:1008300050E062E172E08CEB92E0ABDCB3DDBDCF67
:10084000A701960119A2CE0181967C01CA01B901C6
:10085000A50194010AD0605DF70162937F01211523
:1008600031054105510591F7D4CFA1E21A2EAA1BFB
:10087000BB1BFD010DC0AA1FBB1FEE1FFF1FA21750
:10088000B307E407F50720F0A21BB30BE40BF50B4D
:10089000661F771F881F991F1A9469F760957095D6
:1008A000809590959B01AC01BD01CF010895EE0F9D
:1008B000FF1F881F8BBF0790F691E02D1994F894C5
:0208C000FFCF68
:1008C200000000006701C900F600B301270105011D
:0608D20019010D0A0000EF
:00000001FF
