:020000006B2A69
:100006007B15FB1F0D280130F300F201F101F00111
:08001600FA0DF20CFF300800A6
:0E001E00F201F101F001F801F30100300800D9
:08002C00FA1FF2130030080076
:10003400FB14FB1F2428FF30F300F200F100F00052
:08004400FA0DF20CFF30080078
:10004C00A0017208031D3B287108F2007008F10032
:10005C00F001A0157208031D3B287108F200F10194
:10006C00A01120167208031949282008F302031D59
:10007C00031C4D280310F21B5128F00DF10DF20D4D
:10008C00F30B41284D280130FC000F20542802307E
:0E009C00FC00032054280430FC00162008004D
:1000AA007C188B28FC185C287C19AA285528A001E2
:1000BA007208031D7C287108F2007008F1007808A4
:1000CA00F000F801A0157208031D7C287108F200DF
:1000DA007008F100F001A01120167208031D7C2897
:1000EA007108F200F101A015720803199E28200870
:1000FA00F302031D031CA2280310F21B8B28F80D20
:10010A00F00DF10DF20DF30B8228A2287B1B701C57
:10011A00A628F81FA628F00A0319F10A0319F20AF9
:10012A00031DA628F20CF10CF00CF30A0319AA28F5
:10013A00A6280130FC000F20AD280230FC00032065
:10014A00AD280430FC001620AD280830FC001A2027
:04015A000000080099
:0E015E008312031328088A0027088200080075
:10016C007B14FB1FC128F201FA1FFF30F200F100D3
:0A017C00F000FA0DF20CFF3008004D
:100186008312031372087606A000F801F9017308BA
:100196007702031CE6287708FD007308F7007D0840
:1001A600F3007608FD007208F6007D08F200750877
:1001B600FD007108F5007D08F1007408FD00700867
:1001C600F4007D08F000770803195F297208FA0029
:1001D600F217F61777087302F70003191929083082
:1001E6007702031C0F29F7007408F9007508F4005C
:1001F6007608F500F60108307702031C0F29F70090
:100206007408F9007508F400F50108307702031C3C
:100216000F297A08F2005F297708031919290310B4
:10022600F60CF50CF40CF90CF70B1229A01F262975
:10023600F909F409F509F609F90A0319F40A031983
:10024600F50A0319F60A7908F80774080318740FF3
:10025600F00775080318750FF10776080318760F6F
:10026600F207A01B3F29031C4F29F20CF10CF00CDE
:10027600F80CF30F4F295B2903185329F809F009E5
:10028600F109F209F80A0319F00A0319F10A031928
:10029600F20A8030FA0657290130FC005520612900
:1002A6000230FC00552061290430FC00262061291B
:1002B6000830FC001A2061290030FC00000008000C
:1002C60083120313FB0173080319A0297208FA00AD
:1002D600F2178E30F302F31FA329F309F30A08304D
:1002E6007302031C8629F300F10D7208F100F20176
:1002F60008307302031C8629F300F10DF10173081F
:10030600031D03108E29730803198E290310F20C9E
:10031600F10CF30B89297B1B711C9829031C982966
:10032600F10A0319F20AF21BAF29FA1FB229F209E0
:10033600F109F10A0319F20AB229F201F101B2290F
:100346007B14FB1FB529F201FA1FB529FF30F20015
:10035600F100FA0DF20CB5290130FC00B729003086
:10036600FC00B729FF30FC00FC080319BB29B620A6
:0A0376007108F0007208F1000800A1
:1003800083120313FB017308031D77080319172A4F
:1003900072087606FA007708F3077E30031CD4292A
:1003A000F30203181A2AD729F302031C1D2A720824
:1003B000F8007108FC007008FD00F817F61703102C
:1003C000F201F101F0011830A0007D1CF129740840
:1003D000F00775080318750FF10776080318760FF4
:1003E000F207F20CF10CF00CF80CFC0CFD0C0310F5
:1003F000A00BE529F21B012AF80DF00DF10DF20D0D
:10040000F3037B1B701C132AF81F132AF00A03192D
:10041000F10A0319F20A031D132AF20CF10CF00C75
:10042000F30A03191A2AFA1FF21300301F2A0130A7
:100430000F201F2A02301A201F2A04300320000038
:020440000800B2
:0C044200831203138030F606C32008006C
:10044E008316031398182D2A0000272A83123308C7
:04045E0099000800F9
:10046200831203137008F8007108F000F101F20121
:10047200F301FB01FC019630F300FA01F01F472A59
:10048200F809F009F80A0319F00AFA177008F100DE
:0C0492007808F000F801F20126200800B4
:10049E0083160313981690308312980083168717CD
:1004AE00071383128C1E5E2A1A08F000582A0800C1
:1004BE00AF208A110A128000840AA70A0319A80A1B
:0804CE00F003031D5F2A080082
:1004D600CD3083120313A100CC30A2004C30A30010
:1004E6007A30A400A501A6011930831699001815C3
:1004F6004F220D30FC00FB30FD00FD0B802AFC0B6B
:10050600802A000000008601FF30831686008312D1
:1005160008108316880183120608A500A60125087F
:10052600F0002608F10031227008A9007108AA001F
:100536007208AB007308AC00A501A60108100814E8
:100546000608A500A6012508F0002608F1003122BC
:100556002108F4002208F5002308F6002408F70015
:10056600C0217008AF007108B0007208B1007308AE
:10057600B2002108F4002208F5002308F60024083A
:10058600F7000030F0000030F1000030F2007F305C
:10059600F30021222908F4002A08F5002B08F600AA
:1005A6002C08F700C0212F08F4003008F5003108A8
:1005B600F6003208F700C3207008A9007108AA00E7
:1005C6007208AB007308AC000030F4000030F50090
:1005D6000030F6007E30F700C32063217008AD00BE
:0E05E6007108AE002D08B3002722A12AF92AC1
:02400E004A2F37
:00000001FF
